:020000040800F2
:10000000F805002005010008C7190008A918000814
:10001000C519000871010008651D000800000000F6
:10002000000000000000000000000000CB190008E4
:100030005702000800000000C9190008CD19000887
:100040001F0100081F0100081F0100081F01000810
:100050001F0100081F0100081F0100081F01000800
:100060001F0100081F0100081F0100081F010008F0
:100070001F0100081F0100081502000821020008E6
:100080001F0100081F0100081F0100081F010008D0
:10009000551D00081F0100081F0100081F0100086E
:1000A0001F0100081F0100081F0100081F010008B0
:1000B0001F0100081F0100081F0100081F010008A0
:1000C0001F0100081F0100081F0100081F01000890
:1000D0001F0100080D1D00081F0100081F01000876
:1000E0001F0100081F0100081F010008DFF810D0E1
:1000F00000F02CF800480047051F0008AFF300800F
:10010000F80500200648804706480047FEE7FEE75E
:10011000FEE7FEE7FEE7FEE7FEE7FEE7FEE7FEE7B7
:100120001D1A0008ED000008D2B201E000F8012B12
:10013000491EFBD270470022F6E710B513460A4667
:1001400004461946FFF7F0FF204610BD064C074D48
:1001500006E0E06840F0010394E807009847103497
:10016000AC42F6D3FFF7C6FF841F0008A41F0008A7
:10017000FEE7000006480021064AC160816013685E
:1001800003600175082101610320106070470000C1
:10019000440000200000002010B501F087FB01F0B2
:1001A0008BFE054800F0B8FB0221034800F055F82B
:1001B000BDE81040FFF7DEBF5C0000202DE9FC41E8
:1001C000064600200090044601900120491E6F461B
:1001D00000EBD10515E000BF00EBC401715C3954A0
:1001E000401C80B20828F7D30949084B6A4601F140
:1001F000180000F044F810B10120BDE8FC81641C37
:10020000A4B2A5424FF00000E6D8F6E704000020B3
:1002100044000020014800F021BC0000B40100208F
:10022000014800F01BBC00007001002030B590F8C0
:1002300040500124AC40C56B6C6004686360436847
:10024000102B036803D099600068C26030BD9A60CB
:100250000068C16030BD7047704790F82020012AC7
:1002600007D0022A05D0416A41F480214162012071
:100270007047006842690A43426100207047F0B548
:1002800090F820500468A468012D05D0022D03D0F9
:10029000416A41F480215DE014F0406F01D1E50036
:1002A00055D5C4F30164022C03D9416A41F400011D
:1002B00050E00125A5401D608D684FF4C0739DB1CD
:1002C000CE6835434E6845EAC605066803EB041759
:1002D000F5514FF4C275076805EB04150E697E51A0
:1002E000097D012905D009E00E88CD6845EA46550B
:1002F000EBE701684E5946F480764E511179D57975
:10030000567941EA056195792D0445EA0625294388
:100310004FF4C676056806EB0416A9511178D57816
:1003200041EA0561957852782D0445EA022211438D
:100330004FF4C475026805EB04155151006803EBD6
:100340000411425842F0010242500020F0BD416ABF
:1003500041F4001141620120F0BD000010B590F899
:1003600020300268012B07D0022B05D0416A41F4EE
:1003700080214162012010BDD2F8000240F001004E
:10038000C2F80002087D00F01F0301209840D2F857
:100390001C328343C2F81C32CB69B3B9D2F80C3299
:1003A0008343C2F80C328C894B6864F31F434C6959
:1003B00002EBC404C4F840320C890B6864F31F4399
:1003C0004C6902EBC404C4F84432CB69012B16D14A
:1003D000D2F80C320343C2F80C320C884B6864F339
:1003E0001F434C6902EBC404C4F840320C89CB684B
:1003F00064F31F434C6902EBC404C4F844328B69B4
:10040000002BD2F804320FD053EA0003C2F80432B2
:100410000B69002BD2F8143208D00343C2F814320F
:10042000096A012904D008E08343EFE78343F5E735
:10043000D2F81C120143C2F81C12D2F8000220F0BC
:100440000100C2F80002002010BD704730B590F8DE
:100450002040012C05D0022C03D0416A41F48021B8
:100460005DE00468002955D02469A40754D04FF4F6
:10047000D874056804EB01142D5915F00405956036
:1004800005682D594ED0ED08556005682C5904F0CB
:100490000204D4604FF4DA74056804EB01142D599A
:1004A00005F00F05156105682D59C5F30725956100
:1004B00005682C59240C54614FF4DC72046802EB7B
:1004C0000112A4581C700468A458240A5C700468C3
:1004D000A458240C9C700468A258120EDA704FF4D1
:1004E000DE72046802EB0112A4581C710468A4585F
:1004F000240A5C710468A458240C9C710468A258F6
:10050000120EDA71006881B1016941F020010161C8
:10051000002030BDE468A8E7416A41F4001141625F
:10052000012030BD6D0D1560AFE7C16841F02001BD
:10053000C160EDE72DE9F05F0546006800244669DB
:10054000D0F804908768D0F80CB0D0F810A0D0F89C
:100550001880F10748D0F90714D001218160B8074D
:1005600003D5284600F005FA0CE0780702D54FF4D1
:10057000006407E0380702D54FF4805402E02846B3
:1005800000F0F6F9F80516D529684FF480708860F8
:10059000B80503D5284600F0EEF90CE0780502D541
:1005A00044F4005407E0380502D544F4804402E0E6
:1005B000284600F0DFF9F80316D529684FF480309B
:1005C0008860B80303D5284600F0D7F90CE078031B
:1005D00002D544F4004407E0380302D544F48034E3
:1005E00002E0284600F0C8F9300707D55FEACB6083
:1005F00004D52968102044F40074C86070074FF0D7
:10060000080707D55FEA0B7004D52868C76028463D
:1006100000F05AF9B00706D52868C068800702D0F4
:10062000284600F053F9700607D55FEACA6004D582
:100630002968102044F480640861B00607D55FEA99
:100640000A7004D528680761284600F061F9F006B1
:1006500006D528680069800702D0284600F059F9BD
:10066000B00308D55FEAC96005D529681020486045
:10067000284600F04FF9F00307D55FEA097004D56A
:1006800028684760284600F079F9300446D55FEACB
:10069000497040D5F00504D55FEAC87001D044F038
:1006A0000104B00504D55FEA887001D544F0020466
:1006B000700504D55FEA487001D544F004043005A4
:1006C00029D518F0700F26D008F07000402815D0FA
:1006D00006DC102809D020280AD0302816D10AE0DC
:1006E00050280ED0602811D10EE044F008040DE02F
:1006F00044F010040AE044F0200407E044F0400411
:1007000004E044F0800401E044F4807428688169C6
:1007100021F070018161296804204860002C05D017
:10072000686A204368622846FFF78FFEBDE8F09FA5
:1007300070B5040003D094F8200010B104E001204B
:1007400070BD204600F082F82068016841F0010188
:10075000016000F083FB0546052604E000F07EFB07
:10076000401B0A2811D820684068C007F6D02068CE
:10077000016821F00201016000F070FB05460BE00A
:1007800000F06CFB401B0A2806D9606A40F4003078
:10079000606284F82060D2E7206840688007EFD468
:1007A000207E0128206801683DD021F08001016091
:1007B000607E01282068016838D021F04001016086
:1007C000A07E01282068016833D021F0200101605B
:1007D000E07E0128206801682ED041F01001016000
:1007E000207F01282068016829D021F008010160DC
:1007F000607F01282068016824D021F00401016095
:10080000D4E902010843D4E90412114308436168A2
:10081000491E08432168C86100206062012084F8F5
:100820002000002070BD41F08001C0E741F0400190
:10083000C5E741F02001CAE721F01001CFE741F000
:100840000801D4E741F00401D9E7000010B586B0F3
:10085000002100910191029103910068174988429B
:100860002AD11748C16941F00071C161C16901F025
:1008700000710491816941F0040181618069114C2A
:1008800000F0040004904FF4006000906946204698
:1008900000F0F4F9A01400900220019003200390CE
:1008A0006946204600F0EAF900221146142000F0C3
:1008B00045FB142000F034FB06B010BD006400407E
:1008C00000100240000801407047000070B50E4B58
:1008D0000646A3F11C020021FFF7B8FD002812D143
:1008E000094D00241C3D05E02819017F07A001F0F7
:1008F00049FA641C2869A042F6D83046BDE8704029
:100900000221FFF7AABC70BD3C0000202563000057
:10091000704770477047000070B5044690F820009B
:10092000012804D0606A40F40020606218E00220D0
:1009300084F820002068016821F00101016000F0C6
:100940008DFA05460EE000BF00F088FA401B0A2829
:1009500008D9606A40F400306062052084F8200005
:10096000012070BD20684068C007EDD1606270BD95
:10097000704770477047704770477047704710B5B1
:1009800090F821100022022905D00421816380F80B
:100990002020012010BD01680B6823F00E030B60BE
:1009A00001680B6823F001030B6090F84030C46BC2
:1009B000012101FA03F3636080F8211080F8202000
:1009C000104610BD10B590F821100024022903D064
:1009D0000421816301243DE001680A6822F00E02CF
:1009E0000A6001680A6822F001020A601A4A016876
:1009F000914201D1012121E0174A1432914201D1E3
:100A000010211BE0144A2832914201D1891515E0CA
:100A1000114A3C32914201D189140FE00E4A503202
:100A2000914202D14FF4803108E00B4A6432914286
:100A300002D14FF4801101E04FF08071064A083A6C
:100A40005160012180F82110002180F82010416BB5
:100A500001B18847204610BD080002402DE9F05F33
:100A6000C16B0C6801680B68D0F840C0042202FA20
:100A70000CF2494DDFF824A1494E4A4FDFF828B166
:100A8000DFF828E122422CD05A072AD50A689206BC
:100A900003D40A6822F004020A600168A94201D165
:100AA000042219E0514501D1402215E0B14202D1A2
:100AB0004FF4806210E0B94202D14FF480420BE063
:100AC000594502D14FF4802206E0714502D14FF41E
:100AD000800201E04FF080622F4908394A60C16A04
:100AE0003BE04FF0020808FA0CF818EA040F4FF048
:100AF00000094FF0010235D05FEA837832D50B68E8
:100B00009B0605D40B6823F00A030B6080F82120B4
:100B10000168A94201D1022219E0514501D12022E8
:100B200015E0B14202D14FF4007210E0B94202D197
:100B30004FF400520BE0594502D14FF4003206E069
:100B4000714502D14FF4001201E04FF000721249DA
:100B500008394A6080F82090816A00291AD0BDE8DF
:100B6000F05F0847082505FA0CF5254212D01B074F
:100B700010D50B6823F00E030B6090F84010C36B88
:100B800002FA01F15960826380F8212080F82090F8
:100B9000016BE2E7BDE8F09F080002401C00024044
:100BA0003000024044000240580002406C00024005
:100BB00030B528B308C8134914221944B1FBF2F127
:100BC0008900C16310498163022141771A6843F6A5
:100BD000F0718A43D0E900142143D0E902452C4347
:100BE000214304692143446921438469214311431A
:100BF000196000214163012242770177084630BD28
:100C0000012030BDF8FFFDBF0000024070B5044672
:100C100090F82000002501280CD0012084F8200045
:100C200094F821600020012E06D084F820000225CF
:100C3000284670BD022070BD022684F82160A063A2
:100C40002068066826F0010606602046FFF7EEFAE7
:100C5000E06A00282068016802D041F00E0106E039
:100C600021F0040101602068016841F00A0101607F
:100C70002068016841F001010160D9E72DE9F84FD2
:100C8000DFF8B891002409F1040A0AF1040B2346A5
:100C90000F270BF1040EC9E00125A5402A40AA4206
:100CA0007DD1674ED1F804C0ACEB0608B44532D014
:100CB00014DCBCF1030F3AD009DCBCF1000F2AD0E0
:100CC000BCF1010F1CD0BCF1020F31D11DE0BCF111
:100CD000110F17D0BCF1120F2AD119E0B8F5881FF7
:100CE00019D006DCB8F5803F15D0B8F5801F1FD1AC
:100CF00011E0B8F5001F0ED0B8F5041F18D10AE0B6
:100D0000CB6815E0CB681B1D12E0CB6808330FE001
:100D1000CB680C330CE08B682BB1012B4FF0080330
:100D200003D0456104E0042302E0056100E00023F4
:100D3000FF2A01D8064601E000F104064FEA8405C7
:100D400001D9A5F12005D6F8008007FA05FC28EAAC
:100D50000C0803FA05F548EA0508C6F800804D6856
:100D6000ED0062D5374DAE6946F00106AE61AD6962
:100D700024F0030605F001050095334D06EB050C44
:100D8000DCF80850A607360F07FA06F825EA08052A
:100D9000DFF8B880404503D14FF0000817E044E089
:100DA000DFF8AC80404502D14FF001080FE0DFF8DA
:100DB000A480404502D14FF0020808E0DFF8988097
:100DC000404502D14FF0030801E04FF0040808FA53
:100DD00006F848EA0508CCF808804D68D9F80060A4
:100DE000ED034D4601D5164300E096432E604D6855
:100DF000DAF80060AD03554601D5164300E096438E
:100E00002E604D68DBF80060ED025D4601D51643AB
:100E100000E096432E604D68DEF80060AD02754636
:100E200001D5164300E096432E60641C0D682A46E7
:100E3000E5407FF431AFBDE8F88F000000040140C9
:100E400000001110001002400000014000080140A5
:100E5000000C01400010014000140140014880686E
:100E60007047000010000020024881680278114499
:100E70008160704710000020074810B5016841F0FC
:100E800010010160032000F079F8002000F006F85E
:100E900000F024F8002010BD0020024070B50D4D78
:100EA00004464FF47A712878B1FBF0F00A490968DA
:100EB000B1FBF0F000F0F4FA48B9102C07D2002290
:100EC0002146501E00F03AF800206C6070BD0120F1
:100ED00070BD0000100000201C0000200E4808B566
:100EE000816941F001018161816901F00101009195
:100EF000C16941F08051C161C06900F0805000902B
:100F0000052000F03BF80548416821F0E06141F020
:100F10000071416008BD0000001002400000014067
:100F2000002809DB00F01F020121914040098000E8
:100F300000F1E020C0F8001170470000F0B40E4B43
:100F40001B680C46C3F30223C3F10705042D00D927
:100F50000425191D072901D2002300E0DB1E01260C
:100F600006FA05F1491E214099409E40761E164022
:100F70003143F0BC00F016BF0CED00E0064900F074
:100F8000070208684FF6FF03184040EA0220034AB0
:100F900010430860704700000CED00E00000FA0507
:100FA0002DE9F0470F46050061D0434E306800F050
:100FB0000700B84209D2306820F00700384330609B
:100FC000306800F00700B84251D128683B4C8107D7
:100FD00012D5400703D5606840F4E060606028786F
:100FE000000703D5606840F4605060606068A968DD
:100FF00020F0F000084360602878C00728D06868B7
:10100000012810D02168022810D0890700292EDA83
:10101000616821F0030101436160FFF71FFF804613
:1010200041F288390DE021688903EFE78901EDE796
:10103000FFF714FFA0EB0801494502D90320BDE8E2
:10104000F0876068696800F00C00B0EB810FEFD1A9
:10105000306800F00700B8420BD9306820F0070074
:1010600038433060306800F00700B84201D00120FA
:10107000E5E72878400705D56068E96820F4E06076
:10108000084360602878000706D56068296920F465
:10109000605040EAC100606000F038F86168084ABA
:1010A000C1F30311515CC840064908600648006856
:1010B000FFF7F4FE0020C2E70020024000100240CB
:1010C0006C1F00081C000020140000200448054983
:1010D00000684968044AC1F30221515CC840704766
:1010E0001C000020001002407C1F00080448054935
:1010F00000684968044AC1F3C221515CC840704786
:101100001C000020001002407C1F000813A185B0C5
:101110000FC98DE80F0015A0154A006804905168AA
:1011200001F00C00042804D0082804D0114805B0B0
:1011300070471148FBE7C1F38343C9031DF803005F
:1011400009D5516804AAC1F34041515C0A4A504391
:10115000B0FBF1F0EBE709494843E8E70203040577
:10116000060708090A0B0C0D0E0F101001020000F3
:101170000010024000127A00001BB70000093D0079
:101180002DE9F84F040070D02078C04DC00749D039
:101190006868C0F38100012807D06868C0F3810047
:1011A000022809D16868C00306D52868800339D5AC
:1011B00060680028E7D035E06068B0F5803F0BD06C
:1011C00010B1B0F5A02F11D0286820F4803028602D
:1011D000286820F4802002E0286840F480302860ED
:1011E000606890B1FFF73AFE06460AE0286840F4CE
:1011F00080202860F0E700BFFFF730FE801B6428E6
:1012000073D828688003F7D50CE0FFF727FE064661
:1012100005E000BFFFF722FE801B6428F0D8286895
:101220008003F7D420789A4E80074FF001094FF0E1
:10123000000839D5686810F00C0F07D06868C0F353
:101240008100022809D16868C00306D42868800795
:1012500014D52069012808D110E02069B0B1C6F882
:101260000090FFF7FBFD074605E00AE1FFF7F6FDFA
:10127000C01B0228C4D828688007F7D52868616990
:1012800020F0F80040EAC10028600DE0C6F80080B8
:10129000FFF7E4FD074604E0FFF7E0FDC01B02286E
:1012A00023D828688007F7D4207800072CD5794800
:1012B000A169D9B1C0F80090FFF7D0FD074604E05E
:1012C000FFF7CCFDC01B02280FD8686A8007F7D54E
:1012D00071484FF4FA510068B0FBF1F0009000BF84
:1012E0000098411E0091FAD20EE080E0C0F8008024
:1012F000FFF7B4FD074604E0FFF7B0FDC01B02286E
:1013000075D8686A8007F7D42078400760D5E86907
:101310000027C00008D4E86940F08050E861E8691F
:10132000012700F0805000905C480168C90513D483
:101330000168834641F480710160FFF78FFD8246AA
:1013400006E000BFFFF78AFDA0EB0A0064284ED834
:10135000DBF80000C005F5D5E06801280AD008B127
:10136000052813D0286A20F001002862286A20F09E
:10137000040002E0286A40F001002862E06841F2BF
:10138000883B98B1FFF76AFD82460BE0286A40F07F
:1013900004002862EEE700BFFFF760FDA0EB0A0142
:1013A00059455AD8286A8007F6D50CE0FFF756FD54
:1013B000824605E0FFF752FDA0EB0A0159454CD8E3
:1013C000286A8007F6D41FB1E86920F08050E861F0
:1013D000E06988B36968C1F38101022944D0022819
:1013E000C6F8608004D0FFF739FD044638E034E0E9
:1013F000FFF734FD074604E0FFF730FDC01B02286D
:101400002BD828688001F7D4206AB0F5803F05D139
:101410006868A16820F4003008436860D4E90801D6
:101420000843696821F4741108436860C6F8609045
:10143000FFF714FD044606E025E000BFFFF70EFDB0
:10144000001B022809D828688001F7D51BE000BFDF
:10145000FFF704FD001B022802D90320BDE8F88F26
:1014600028688001F4D40EE00128F7D06868226A69
:1014700000F48031914204D1616A00F47010884216
:1014800001D00120EAE70020E8E700000010024058
:1014900000004242800442421C00002000700040D4
:1014A00010B5401EB0F1807F01D3012010BD4FF078
:1014B000E02460610F21601700F074FC0020A0613F
:1014C00007202061002010BD704710B50446006859
:1014D000416994F83D20C1F3C011212A0BD151B1CB
:1014E000416921F080014161606B08B1FFF747FA63
:1014F000204600F013FB2068416994F83E20C1F3B8
:101500008011222A0BD151B1416921F04001416182
:10151000A06B08B1FFF733FA204600F0E7FA00208D
:1015200010BD7047F8B5026804461068D168536969
:1015300010F00F0F4FF0000553D003F0010601F437
:10154000907737435FD0C20705D0CA0503D5226C18
:1015500042F001022264420705D5DA0703D0226C6B
:1015600042F002022264820705D5DA0703D0226C1A
:1015700042F004022264020707D501F02002324340
:1015800003D0226C42F008022264226C002A34D07C
:10159000800604D5880602D5204600F0C8FA2068E7
:1015A0004069216CC0F38010090700D430B3204695
:1015B00000F09CFA2068416949061BD5416921F079
:1015C00040014161A06BA8B158494163A06BFFF78E
:1015D000F9F9002811D0A06B416B01B0BDE8F040D3
:1015E000084783060FD58B060DD52046BDE8F84089
:1015F00000F09DBA2046FFF794FFF8BD2046FFF7A4
:1016000090FF2564F8BD266B2023012E52D1C6061B
:1016100050D5CE064ED510685068009050694006EF
:101620002AD5A16B086840680004000CEAD0A68D9A
:101630008642E7D9E0858869202818D0D06820F450
:101640008070D0602068416921F00101416120680B
:10165000416921F04001416184F83E3025632068F2
:10166000C16821F01001C160A06BFFF788F9A08D5F
:10167000E18D401A81B219E0A08DE18D401A81B24E
:10168000E08D0028BED00029BCD0D06820F4907036
:10169000D0602068426922F00102426184F83E3045
:1016A00025632068C26822F01002C2602046FFF75E
:1016B0000BFFF8BD05062BD50D0629D594F83D0086
:1016C0002128F6D1A068B0F5805F01D12069B0B1C2
:1016D000206A411C2162216800784860E08C401E2D
:1016E0000004000CE084E4D12068C16821F080018E
:1016F000C1602068C16841F04001C160F8BD206A46
:101700000088C0F308005060206A801C2062E5E772
:101710004006F3D54806F1D5D168204621F04001B6
:10172000D16084F83D3000F0BEF8F8BD1F1A000803
:1017300070B5040004D094F83D00002510B106E017
:10174000012070BD84F83C50204600F023F824208E
:1017500084F83D002068C16821F40051C160204632
:1017600000F040FA2068016921F49041016120688D
:10177000416921F02A0141612068C16841F40051AA
:10178000C1602564202084F83D0084F83E000020DC
:1017900070BD00002DE9F04186B00024064600949B
:1017A00001940294039400682E49884257D12E4830
:1017B000816941F480418161816901F48041049132
:1017C000816941F0040181618069284D00F00400C5
:1017D00004904FF4007000900220019003200390C9
:1017E00069462846FFF74AFA2815CDE900046946FC
:1017F00028460294FFF742FA1E4D1D484FF080081C
:10180000C5E90004C5E902482C6187146C61C5E98B
:1018100006472846FFF7CCF908B1FEF71DFDB56372
:101820006E62144D12484435143801C51020A5E8E5
:101830001101104845F8104944306C61C5E906476C
:10184000FFF7B6F908B1FEF707FD756300221146F0
:1018500025206E62FFF772FB2520FFF761FB06B0C3
:10186000BDE8F0810038014000100240000801404E
:10187000580002407001002090F83E30202B0ED11D
:1018800059B152B190F83C30012B08D0012380F8B7
:101890003C300023036300F001BA012070470220AE
:1018A0007047704770477047FEE700000F4810B55B
:1018B0000D4901600921416000214FF4C02281607F
:1018C000C0E903124FF4E00242610176417681766D
:1018D000C17601774177FEF72BFF002803D0BDE8E2
:1018E0001040FEF7B9BC10BD006400405C00002051
:1018F000184808B5416941F0010141614069164944
:1019000000F001000090154801604FF480414160F3
:10191000402181608021C1600021016141618161BC
:101920004FF48051C161FFF743F908B1FEF794FC11
:10193000002211460E20FFF701FB0E20FFF7F0FA00
:10194000002211460F20FFF7F9FABDE808400F20EA
:10195000FFF7E6BA001002400800024084000020B1
:10196000094808B5816941F020018161816901F070
:1019700020010091816941F004018161806900F0DA
:101980000400009008BD0000001002400C4810B593
:101990000A4901604FF4E1314160002181600C226D
:1019A000C160C0E904128161C161FFF7C1FE002876
:1019B00003D0BDE81040FEF74FBC10BD0038014019
:1019C0002C010020FEE7704770477047FFF74CBAC4
:1019D00030B58FB028216846FEF7ADFB14210AA868
:1019E000FEF7A9FB01210804CDE9001000240294B0
:1019F00002250491CDE90750000109906846FFF7E0
:101A0000BFFB0F20CDE90A056802CDE90C40022199
:101A10000AA80E94FFF7C4FA0FB030BD704710B596
:101A2000406A0021C185C184FFF77BFD10BD70B500
:101A3000446A2068406994F83D10C0F3C010002546
:101A4000212904D118B1E584204600F067F8206808
:101A5000406994F83E10C0F38010222904D118B1D7
:101A6000E585204600F042F8206C40F0100020642C
:101A70002046FFF756FD70BD10B50146406A096863
:101A8000096889061BD40021C1850168CA6822F44F
:101A90008072CA6001684A6922F001024A610168E5
:101AA0004A6922F040024A61202180F83E10016B11
:101AB000012904D10168CA6822F01002CA60016BD2
:101AC000012902D0FFF7EDFE10BD818DFFF7FCFC70
:101AD00010BD10B5406A016B012902D0FFF7E2FE8C
:101AE00010BD818D4908FFF7EFFC10BD0168CA6881
:101AF00022F49072CA6001684A6922F001024A61C8
:101B0000016B012904D10168CA6822F01002CA6081
:101B1000202180F83E100021016370470168CA68E7
:101B200022F0C002CA60202180F83D10704708B53D
:101B300090F83E10222901D0022008BD82684FF49F
:101B400080539A4201D1016921B1816A9A421BD026
:101B50004AB10AE00268816A5268C2F308020A8048
:101B6000816A891C08E0026972B10268526802F059
:101B70007F020A70816A491C8162C18D491E090475
:101B8000090CC18503D019E002685268F1E70168C9
:101B9000CA6822F02002CA600168CA6822F4807212
:101BA000CA6001684A6922F001024A61202180F876
:101BB0003E10016B012903D0FFF773FE002008BD22
:101BC000002101630168CA6822F01002CA6001683E
:101BD0000A68D20602D50A6849680091818DFFF72C
:101BE00073FCEBE770B5044600680169E26821F414
:101BF0004051114301612169A068084361690843AC
:101C00002168CA6841F20C639A430243CA602068A3
:101C10004169A26921F44071114341611E49206864
:101C2000884202D1FFF762FA01E0FFF74FFA00EBBA
:101C3000C00101EB0012606864218000B2FBF0F388
:101C4000B3FBF1F36FF018067343B2FBF0F5B2FB90
:101C5000F0F605EB8305322303EB0515B5FBF1F533
:101C6000B6FBF1F605F0F00505EB0615B2FBF0F654
:101C7000B2FBF0F0B0FBF1F06FF01802504306EB4E
:101C8000800003EB0010B0FBF1F0216800F00F00C2
:101C90002844886070BD00000038014038B581627A
:101CA00082850025134604460564222084F83E0000
:101CB000A26B13489062A26B1248D062A26B1248CA
:101CC0001063A06B0A4645632168A06B091DFEF7EF
:101CD0009DFF206801684168009184F83C50C1680C
:101CE00041F48071C1602068416941F001014161A6
:101CF0002068416941F040014161002038BD000089
:101D0000791A0008D31A00082F1A00080D4808B5E0
:101D100000680168C1F3001179B101684068009062
:101D20000848FFF7D2FB0848006840680749C0F13F
:101D300064000870064901200870BDE808400148A9
:101D4000FFF7F0BB2C0100207001002008000020EC
:101D50000900002002480068C0680148FEF7EABB9D
:101D60005C000020FEE7000005480068C16841F003
:101D70001001C1600249642264390148FFF77CBD4B
:101D80002C0100200FB4054B10B503A9044A02989A
:101D900000F027F810BC5DF814FB0000ED1E0008F1
:101DA0000C0000200907090E002804DB00F1E020E8
:101DB00080F80014704700F00F0000F1E02080F878
:101DC000141D704702E008C8121F08C1002AFAD18A
:101DD00070477047002001E001C1121F002AFBD1AB
:101DE00070472DE9F84F99469246884605460027E8
:101DF00006E025280AD051464A4690476D1C7F1CB4
:101E000028780028F5D13846BDE8F88F002315F86A
:101E1000011F18462E2915D115F8011F04232A2960
:101E20000DD06FF02F022978A1F13004092C09D8C8
:101E300000EB800002EB400008446D1CF3E758F80B
:101E4000040B6D1C2A78002ADDD0632A07D0732A80
:101E50000FD0104651464A4690477F1C2AE018F89A
:101E6000042B8DF8002000218DF801106E46012111
:101E700003E058F8046B4FF0FF315A074FF00004AD
:101E800001D409E0641C84420BDA8C42FADB325D37
:101E9000002AF7D105E0641C8C42FCDB305D002891
:101EA000F9D1274404E016F8010B51464A46904701
:101EB000641EF8D26D1CA3E700B58BB00020012191
:101EC000CDE90601039005900090019002900891E1
:101ED000049069460448FEF741FA002801D0FEF755
:101EE000BBF90BB000BD00005C00002004490A688B
:101EF0005206FCD5024AC1B2121D116070470000A3
:101F000000380140FEF7B8FFFFF762FDFFF728FD3C
:101F1000FFF7EEFCFFF7CAFCFFF738FDFEF73CF9D0
:101F2000FFF722FF00F002F8FCE7000070B50B4D50
:101F3000287801280BD10A4C21780A48FEF73EF98F
:101F400021780848FEF7F7F8002020702870BDE8D7
:101F50007040642203490448FFF78EBC090000204A
:101F600008000020C80000202C0100200000000014
:101F70000000000001020304060708090000000039
:101F800001020304A41F000800000020200000003C
:101F9000C41D0008C41F000820000020D805000050
:101FA000D41D000803000000000000000000000035
:101FB0000000000001000000100000000000000010
:041FC0000024F40005
:04000005080000ED02
:00000001FF
